:02000000632F6C
:1000060083160313141911281F301105F100710806
:10001600003A031D11280130F0001228F0010800F3
:0E0026008312031725088A00240882000800B0
:1000340083160313430883120317B90083160313AB
:10004400440883120317BA00831603134508831266
:100054000317BB0083160313460883120317BC005F
:10006400B701B8013808123C031D3A2837088E3C02
:10007400031C4728032070080319412847288312CA
:100084000317B70A0319B80A342883120317123066
:100094003802031D4F288F303702031C54287B304D
:1000A400F000852883160313111483160313111CFF
:1000B400842843084404450446040319832883120E
:1000C400031739083A043B043C04031D7A281E082C
:1000D400840005308000840A1C08A4001D08A500C3
:1000E40013208A110A12013083120313F0008528A9
:1000F40001300317B902031CBA02031CBB02031C20
:08010400BC025728F0010800BD
:08010C0083160313111508000E
:10011400831203138C11200893008316430883125F
:100124000317B70083160313440883120317B80098
:1001340083160313450883120317B90083160313A8
:10014400460883120317BA0083160313141DD32819
:1001540043084404450446040319D22883120317B0
:100164003708380439043A04031DC9281E088400DA
:1001740004308000840A1C08A4001D08A500132074
:100184008A110A12013083120313F000222901306C
:100194000317B702031CB802031CB902031CBA02FA
:1001A400A62883160313430883120317B700831684
:1001B4000313440883120317B80083160313450876
:1001C40083120317B9008316031346088312031717
:1001D400BA00031383128C191929831643084404A3
:1001E40045044604031918298312031737083804F1
:1001F40039043A04031D0F291E08840004308000CA
:10020400840A1C08A4001D08A50013208A110A12E0
:10021400013083120313F000222901300317B702BF
:10022400031CB802031CB902031CBA02EB28831690
:100234000313111B1F29F001222911150230F000AC
:020244000800B0
:1002460083120317B6011A2083120317210803131A
:10025600A0008A208312031736080313A0008A2001
:100266008312031735080313A0008A20862008008E
:10027600831203137008F100F0010830FC007108C6
:10028600F40C03184A29FC0B4329F101003403102E
:100296004F29F40C0318F107F10CF00CFC0B4C2958
:0202A60008004E
:1002A80083120313FB01FA01F9018030F800F10C05
:1002B800F00C031C68297408F90775080318750FF2
:1002C800FA070318FB0A0310F01F70297408FA07CD
:1002D80075080318750FFB07FB0CFA0CF90CF80CE2
:1002E800031C5B297B08F3007A08F2007908F10007
:0602F8007808F000080088
:0E02FE008312031725088A00240882000800D6
:10030C0083120313F8010830FC00700DF80D74080B
:10031C00F80203189329F8070310F00DFC0B8B2936
:02032C000800C7
:10032E002030831203173302031CA22933087E3CAC
:10033E00031CA229A4293F30B3002130B50023218C
:10034E0083126E03F0000630F4003B217008031791
:10035E00B500232183126E03F0000630F4003B211A
:10036E00043070070317B5002321223083120317C0
:10037E00B5002321650383120317B50023216503FE
:10038E0083120317B50023211A20831203172108A5
:10039E000313A0008A20403083120313A0008A208A
:1003AE0083120317B401053034020318022A2030D9
:1003BE003302F000F101031CF1030530F4000030AC
:1003CE00F500542103173408F0070318F10A003022
:1003DE00F00708300318013EF1077008A4007108F9
:1003EE00A5007F218A110A120313A0008A2083120E
:1003FE000317B40ADA2986201530F40083126E082A
:10040E00F00086217808F000700AEE006F080319DC
:10041E00182A6E08013A031D182A07308316E505BF
:04042E00E50A0800D3
:100432008030003A83120313F00080307002031DF3
:10044200252A03173108153C031C2D2A03173208ED
:10045200083C031C2D2A2E2A372A031731080313BE
:0E046200EE000317320883160313E5000800AE
:1004700083120317B2013208310784000008003AE2
:100480000319642A3208310784000008203A013039
:10049000031D0030F10003136E08013A0130031D03
:1004A0000030F0007108F0050319592A0317B20A49
:1004B000632A03173208310784000008B30097212C
:0A04C00083120317B20A3B2A08005A
:1004CA008312031731088D0083168C130C148312C0
:0604DA000C08F000080010
:1004E000213083120317B500232183120317B501AE
:1004F00023217F3083120317B5002321223083127A
:100500000317B500232183120317B50123210730F8
:1005100083120317B50023211A2083120317210821
:100520000313A0008A20403083120313A0008A2006
:1005300083120317B101B20104303202031DA22A53
:10054000003031020318AD2A0313A0018A20831260
:0E0550000317B10A0319B20A9C2A862008007C
:10055E00C42A83120313F201F301D62A0130F200EA
:10056E000030F300D62A0230F2000030F300D62A13
:10057E000330F2000030F300D62A0317831231083D
:10058E00413A0319B02A3108423A0319B52A310803
:10059E00433A0319BA2A3108443A0319BF2A72089A
:0805AE00F0007308F1000800E1
:1005B600831203172F0830040319E22A70228312CC
:1005C60003172C08B1002A08B20019228312031758
:0805D6002E08B10038220800D4
:1005DE0083120317A201A30100302302031DF92A7F
:1005EE000430220203180E2B2208E13E840000087C
:1005FE00F1002208DD3E84007108000603190A2B63
:10060E00F001F1011E2BA20A0319A30AF32A663088
:10061E00FB007630FC00C130FD00FD0B142BFC0BF3
:10062E00142BFB0B142B0130F0000030F1000800EE
:10063E008312031388010313081488118819292BB8
:10064E0008112A2B081508192E2B88102F2B881409
:10065E0001300317B1000130B200192283120313C7
:10066E00081A402B881A402B081B402B881B402B46
:10067E00432B03179F01742B031388140810081AB9
:10068E004F2B881A4F2B081B4F2B881B4F2B532B8E
:10069E00013003179F00742B031308158810081AD6
:1006AE005F2B881A5F2B081B5F2B881B5F2B632B1E
:1006BE00023003179F00742B031388150811081AB4
:1006CE006F2B881A6F2B081B6F2B881B6F2B732BAE
:1006DE00033003179F00742B222B0313081E7A2B53
:1006EE000317A0018E2B0313881E812B01300317D5
:1006FE00A0008E2B0313081F882B02300317A000B7
:10070E008E2B0313881F8E2B03300317A0000317A5
:10071E001F08F000F00D7010F00D7010CD30F007C6
:0C072E002008700784000008F00008009C
:10073A00B52B83120317AB01AC01C82B0130AB00F8
:10074A000030AC00C82B0230AB000030AC00C82B24
:10075A000330AB000030AC00C82BF001F101E32BF1
:10076A00831203172A08413A03199E2B2A08423A90
:10077A000319A32B2A08433A0319A82B2A08443A37
:10078A000319AD2BB22B0530F0002B08F4003B21E6
:10079A0070080317B1006522700899009A010030A9
:1007AA001A06031DDA2B01301906031DE12B01304D
:0E07BA00F0000030F100E32BF001F101080027
:1007C800831203172A08B100AF228312031370089B
:1007D8000317AB007108AC00220AB1000630B20062
:1007E80019223030831203172B07B3009721831285
:1007F80003172B08F0000530F4003B21700A03179B
:10080800B1006522700883160313E00083120317F2
:100818002B08F0000530F4003B2102307007031765
:10082800B1006522700883160313DF0083120317D3
:100838002B08F0000530F4003B2103307007031744
:10084800B1006522700883160313DE0083120317B4
:100858002B08F0000530F4003B2104307007031723
:0E086800B1006522700883160313DD0008003E
:1008760083120317A201A30100302302031D452C96
:10088600323022020318612C06140B30FC00E730CC
:10089600FD00FD0B4C2CFC0B4C2C00000000061040
:1008A6005D30FC00FB30FD00FD0B572CFC0B572C7C
:0E08B60000000000A20A0319A30A3F2C08004C
:1008C40083120317A201A30100302302031D6C2C21
:1008D400323022020318862C06140830FC00C8307B
:1008E400FD00FD0B732CFC0B732C00000610613013
:1008F400FC001A30FD00FD0B7D2CFC0B7D2C000050
:0A090400A20A0319A30A662C0800DA
:02090E000800DF
:0A0910001F2370080313AB0008005A
:10091A00013083120317AA000030AB000130AC008B
:10092A000030AD00C730AE000130AF000030B0007B
:10093A00DB220230AA000030AB000230AC000030EB
:0E094A00AD00B330AE00AF01B001DB220800FB
:100958001F2370080313AB0070080317AA009D2318
:100968007008990071089A00700871040319922D93
:100978000130AA000030AB000130AC000030AD00FF
:100988003730AE000130AF000030B000DB22031377
:100998002B088316EF001F2370080313AB000930E0
:1009A800FB001E30FC00E430FD00FD0BD92CFC0BD5
:1009B800D92CFB0BD92C00002B088316E40002303D
:1009C80083120317B1000330B200192283120313F4
:1009D8002B080317B30097211F2370080313AB00DC
:1009E8000930FB001E30FC00E430FD00FD0BFA2C42
:1009F800FC0BFA2CFB0BFA2C00002B088316E300E7
:100A0800033083120317B1000330B2001922831296
:100A180003132B080317B30097211F237008031330
:100A2800AB000930FB001E30FC00E430FD00FD0B7C
:100A38001B2DFC0B1B2DFB0B1B2D00002B088316FD
:100A4800E200043083120317B1000330B200192208
:100A5800831203132B080317B30097211F23700871
:100A68000313AB000930FB001E30FC00E430FD002E
:100A7800FD0B3C2DFC0B3C2DFB0B3C2D00002B08EB
:100A88008316E100053083120317B1000330B2006A
:100A98001922831203132B080317B3009721831617
:100AA80003136F0883120317AA00E423EF227008C8
:100AB80071040319752D3B240130AA000030AB00E6
:100AC8000130AC000030AD004E30AE000130AF0058
:100AD8000030B000DB221F2370080313AB00622430
:100AE800AE2D0130AA000030AB000130AC00003060
:100AF800AD004330AE000130AF000030B000DB2263
:100B08001F30FB007130FC001E30FD00FD0B8A2DEC
:100B1800FC0B8A2DFB0B8A2D0000AE2D0130AA009C
:100B28000030AB000130AC000030AD002130AE0029
:100B38000130AF000030B000DB221F30FB00713005
:100B4800FC001E30FD00FD0BA72DFC0BA72DFB0B99
:060B5800A72D00000800BB
:100B5E001F2370080313AB00DA2D8D24AC24F02D67
:100B6E00F02DF02DF02D87248824F02D0130031761
:100B7E00AA000030AB000130AC000030AD00613097
:100B8E00AE000130AF000030B000DB222930FB0098
:100B9E009630FC007F30FD00FD0BD32DFC0BD32DCA
:100BAE00FB0BD32DF02D03132B08313A0319B42D63
:100BBE002B08323A0319B72D2B08333A0319B82DE7
:100BCE002B08343A0319B92D2B08353A0319BA2DCF
:040BDE00BD2D080021
:100BE200013083120317AA000030AB000130AC00C1
:100BF2000030AD002C30AE000130AF000030B0004C
:100C0200DB220230AA000030AB000230AC00003020
:100C1200AD00A030AE00AF01B001DB220330AA006C
:100C22000030AB000230AC000030AD00A730AE00A7
:100C3200AF01B001DB220430AA000030AB00023069
:100C4200AC000030AD00AD30AE00AF01B001DB2230
:100C52000530AA000030AB000230AC000030AD001D
:100C62006830AE00AF01B001DB220630AA000030CE
:100C7200AB000230AC000030AD005B30AE00AF0123
:100C8200B001DB220B30FB002630FC005D30FD00A2
:100C9200FD0B492EFC0B492EFB0B492E00000000D8
:020CA200080048
:100CA4008312031726088D0027088C0083168C13E3
:100CB4000C150B08F0008B0155308D00AA308D0007
:100CC4008C1470088B000C11831203130D1A6B2EF5
:060CD400662E0D1208005F
:100CDA008312031726089B002708A1000313051097
:100CEA00831605103430FC00F130FD00FD0B7B2E1D
:100CFA00FC0B7B2E0000000083120514AE30031794
:100D0A00B5002321D53083120317B5002321803083
:100D1A0083120317B5002321A83083120317B500E5
:100D2A0023213F3083120317B5002321D3308312C6
:100D3A000317B500232183120317B501232140307D
:100D4A0083120317B50023218D3083120317B500D0
:100D5A002321831203172608013A031DB82E1030E7
:100D6A00B5002321BD2E143083120317B5002321A9
:100D7A00203083120317B500232183120317B5010C
:100D8A002321A13083120317B5002321C83083120F
:100D9A000317B5002321DA3083120317B500232184
:100DAA00123083120317B5002321813083120317EF
:100DBA00B5002321831203172608013A031DE92EE1
:100DCA009F30B5002321EE2ECF3083120317B500D2
:100DDA002321D93083120317B50023218312031765
:100DEA002608013A031DFD2E2230B5002321022FC9
:100DFA00F13083120317B5002321DB308312031766
:100E0A00B5002321403083120317B5002321A430F3
:100E1A0083120317B5002321A63083120317B500E6
:100E2A0023212E3083120317B5002321AF308312FA
:080E3A000317B5002321080095
:100E420003308312031790000030910000309200AB
:100E520000301A30930000309400003095000030CA
:100E6200FF309600FF309700003098000030FF30CE
:100E720083160313EC00FF30ED00FF30EE00FF306D
:100E82008A30E6000030E7002030E800003086308B
:100E9200E9000030EA000030EB0000301413941334
:0C0EA200071687153830831294000800F2
:100EAE007F218A110A128000840AA40A0319A50A56
:080EBE00F003031D572F08008B
:100EC6008A1518228A11FF30831603138500F03025
:100ED60088007F30810586010A3093002127023081
:100EE6000317A6007A30A7006D26702241308312C0
:100EF6000317AA009D2370087104031D9E2FA601E7
:100F06000130A700522601300317A6003130A70092
:100F1600522602300317A6003230A70052260330AD
:100F26000317A6003330A700522604300317A60085
:0E0F36003430A7005226F125AF259E2FA12FA3
:10143000213084004D3083120313F000A5300317D0
:10144000A4000730A5008A1157278A15A030840010
:101450003D3083120313F000DB300317A400093082
:10146000A5008A1157278A156E3084000130831237
:101470000313F000FC300317A4000730A5008A1105
:1014800057278A15DD308400083083120313F000DB
:10149000F2300317A4000730A5008A1157278A15D8
:1014A0006F308400013083120313F000FB30031708
:1014B000A4000730A5008A1157278A15E53084005B
:1014C000013083120313F000FA300317A400073031
:0A14D000A5008A1157278A150800AD
:100F4A0049346E34743472347534643465347234AA
:040F5A00213400340A
:020F5E0000345D
:100F600053346534633475347234693474346134A1
:060F70007334213400344B
:100F760045346E34743465347234203450346934F4
:080F86006E343A3420340034CB
:100F8E00573472346F346E346734203450346934CD
:060F9E006E342134003422
:100FA4004C346F3463346B3420344F3470346534D0
:0A0FB4006E346534643421340034D7
:0C0FBE0035342E3449346E34663400346F
:0E0FCA00573472346F346E346734213400347F
:0C0FD80034342E3452346D34763400343E
:080FE400303430343034303475
:080FEC0030343034303430346D
:020FF4000134C6
:020FF6000134C4
:020FF8000134C2
:1010000000340034003400340034003400345F34E1
:10101000003400340034073400340734003414340E
:101020007F3414347F34143424342A347F342A3403
:10103000123423341334083464346234363449347B
:101040005634203450340034083407340334003428
:1010500000341C342234413400340034413422340E
:101060001C3400342A341C347F341C342A340834B1
:1010700008343E340834083400348034703430345A
:101080000034083408340834083408340034003498
:1010900060346034003420341034083404340234B2
:1010A0003E345134493445343E34003442347F3484
:1010B000403400347234493449344934463421349C
:1010C000413449344D3433341834143412347F34B9
:1010D0001034273445344534453439343C344A34AB
:1010E000493449343134413421341134093407341A
:1010F0003634493449344934363446344934493431
:1011000029341E34003400341434003400340034E4
:10111000403434340034003400340834143422347D
:101120004134143414341434143414340034413439
:101130002234143408340234013459340934063466
:101140003E3441345D3459344E347C3412341134DD
:1011500012347C347F3449344934493436343E3493
:1011600041344134413422347F34413441344134B8
:101170003E347F3449344934493441347F3409346E
:101180000934093401343E34413441345134733428
:101190007F340834083408347F34003441347F34D9
:1011A000413400342034403441343F3401347F34FE
:1011B00008341434223441347F34403440344034D1
:1011C00040347F3402341C3402347F347F3404349E
:1011D000083410347F343E344134413441343E3499
:1011E0007F3409340934093406343E3441345134EF
:1011F00021345E347F34093419342934463426349A
:101200004934493449343234033401347F340134AD
:1012100003343F344034403440343F341F342034AE
:10122000403420341F343F344034383440343F3469
:101230006334143408341434633403340434783499
:10124000043403346134593449344D344334003464
:101250007F3441344134413402340434083410348E
:10126000203400344134413441347F340434023476
:101270000134023404344034403440344034403487
:1012800000340334073408340034203454345434E4
:10129000783440347F342834443444343834383457
:1012A00044344434443428343834443444342834C2
:1012B0007F343834543454345434183400340834BB
:1012C0007E34093402341834A434A4349C34783481
:1012D0007F340834043404347834003444347D34A6
:1012E000403400342034403440343D3400347F34C2
:1012F0001034283444340034003441347F344034D2
:1013000000347C3404347834043478347C34083445
:101310000434043478343834443444344434383471
:10132000FC34183424342434183418342434243449
:101330001834FC347C34083404340434083448341D
:101340005434543454342434043404343F34443452
:1013500024343C344034403420347C341C34203435
:10136000403420341C343C344034303440343C3439
:10137000443428341034283444344C349034903479
:1013800090347C344434643454344C344434003425
:1013900008343634413400340034003477340034B7
:1013A000003400344134363408340034023401341B
:0613B00002340434023493
:0E13B60031342E344F34703465346E340034CC
:0C13C40032342E3443346E34673400346D
:0C13D00033342E3441346434643400346F
:1013DC005B3441345D3420345B3442345D3420342E
:1013EC005B3443345D3420345B3444345D3400343A
:0813FC00003400340034003419
:0C14040055347334653472343A340034CB
:101410003734383439344134343435343634423462
:101420003134323433344334463430344534443444
:02400E004A2F37
:00000001FF
